{
  "contractName": "ROSCA",
  "abi": [
    {
      "inputs": [
        {
          "internalType": "uint256",
          "name": "_contributionAmount",
          "type": "uint256"
        },
        {
          "internalType": "uint256",
          "name": "_cycleDuration",
          "type": "uint256"
        }
      ],
      "stateMutability": "nonpayable",
      "type": "constructor"
    },
    {
      "anonymous": false,
      "inputs": [
        {
          "indexed": true,
          "internalType": "address",
          "name": "member",
          "type": "address"
        },
        {
          "indexed": false,
          "internalType": "uint256",
          "name": "amount",
          "type": "uint256"
        },
        {
          "indexed": false,
          "internalType": "uint256",
          "name": "cycle",
          "type": "uint256"
        }
      ],
      "name": "ContributionMade",
      "type": "event"
    },
    {
      "anonymous": false,
      "inputs": [
        {
          "indexed": true,
          "internalType": "address",
          "name": "member",
          "type": "address"
        },
        {
          "indexed": false,
          "internalType": "uint256",
          "name": "cycle",
          "type": "uint256"
        }
      ],
      "name": "MemberJoined",
      "type": "event"
    },
    {
      "anonymous": false,
      "inputs": [
        {
          "indexed": true,
          "internalType": "address",
          "name": "member",
          "type": "address"
        },
        {
          "indexed": false,
          "internalType": "uint256",
          "name": "amount",
          "type": "uint256"
        },
        {
          "indexed": false,
          "internalType": "uint256",
          "name": "cycle",
          "type": "uint256"
        }
      ],
      "name": "Withdrawal",
      "type": "event"
    },
    {
      "inputs": [],
      "name": "admin",
      "outputs": [
        {
          "internalType": "address",
          "name": "",
          "type": "address"
        }
      ],
      "stateMutability": "view",
      "type": "function",
      "constant": true
    },
    {
      "inputs": [],
      "name": "contributionAmount",
      "outputs": [
        {
          "internalType": "uint256",
          "name": "",
          "type": "uint256"
        }
      ],
      "stateMutability": "view",
      "type": "function",
      "constant": true
    },
    {
      "inputs": [],
      "name": "currentCycle",
      "outputs": [
        {
          "internalType": "uint256",
          "name": "",
          "type": "uint256"
        }
      ],
      "stateMutability": "view",
      "type": "function",
      "constant": true
    },
    {
      "inputs": [],
      "name": "cycleDuration",
      "outputs": [
        {
          "internalType": "uint256",
          "name": "",
          "type": "uint256"
        }
      ],
      "stateMutability": "view",
      "type": "function",
      "constant": true
    },
    {
      "inputs": [
        {
          "internalType": "uint256",
          "name": "",
          "type": "uint256"
        },
        {
          "internalType": "uint256",
          "name": "",
          "type": "uint256"
        }
      ],
      "name": "cycles",
      "outputs": [
        {
          "internalType": "address payable",
          "name": "memberAddress",
          "type": "address"
        },
        {
          "internalType": "uint256",
          "name": "contribution",
          "type": "uint256"
        },
        {
          "internalType": "uint256",
          "name": "balance",
          "type": "uint256"
        },
        {
          "internalType": "bool",
          "name": "hasWithdrawn",
          "type": "bool"
        }
      ],
      "stateMutability": "view",
      "type": "function",
      "constant": true
    },
    {
      "inputs": [
        {
          "internalType": "address",
          "name": "",
          "type": "address"
        }
      ],
      "name": "isMember",
      "outputs": [
        {
          "internalType": "bool",
          "name": "",
          "type": "bool"
        }
      ],
      "stateMutability": "view",
      "type": "function",
      "constant": true
    },
    {
      "inputs": [],
      "name": "memberCount",
      "outputs": [
        {
          "internalType": "uint256",
          "name": "",
          "type": "uint256"
        }
      ],
      "stateMutability": "view",
      "type": "function",
      "constant": true
    },
    {
      "inputs": [],
      "name": "membersWithdrawn",
      "outputs": [
        {
          "internalType": "uint256",
          "name": "",
          "type": "uint256"
        }
      ],
      "stateMutability": "view",
      "type": "function",
      "constant": true
    },
    {
      "inputs": [],
      "name": "startTime",
      "outputs": [
        {
          "internalType": "uint256",
          "name": "",
          "type": "uint256"
        }
      ],
      "stateMutability": "view",
      "type": "function",
      "constant": true
    },
    {
      "inputs": [],
      "name": "totalContribution",
      "outputs": [
        {
          "internalType": "uint256",
          "name": "",
          "type": "uint256"
        }
      ],
      "stateMutability": "view",
      "type": "function",
      "constant": true
    },
    {
      "inputs": [],
      "name": "joinROSCA",
      "outputs": [],
      "stateMutability": "payable",
      "type": "function",
      "payable": true
    },
    {
      "inputs": [],
      "name": "contribute",
      "outputs": [],
      "stateMutability": "payable",
      "type": "function",
      "payable": true
    },
    {
      "inputs": [],
      "name": "withdraw",
      "outputs": [],
      "stateMutability": "nonpayable",
      "type": "function"
    }
  ],
  "bytecode": "0x608060405234801561001057600080fd5b50604051610b13380380610b1383398101604081905261002f91610055565b600080546001600160a01b03191633179055600191825560025560035542600655610079565b6000806040838503121561006857600080fd5b505080516020909101519092909150565b610a8b806100886000396000f3fe6080604052600436106100c25760003560e01c80635fa0b65f1161007f578063a230c52411610059578063a230c524146101c9578063bab2f55214610209578063d7bb99ba1461021f578063f851a4401461022757600080fd5b80635fa0b65f1461015157806378e97925146101675780639853ae1b1461017d57600080fd5b80630dcf4b8f146100c757806311aee380146100f05780633ccfd60b146101065780633f14a9131461011d5780635956fdcd146101335780635bec4cb41461013b575b600080fd5b3480156100d357600080fd5b506100dd60055481565b6040519081526020015b60405180910390f35b3480156100fc57600080fd5b506100dd60045481565b34801561011257600080fd5b5061011b61025f565b005b34801561012957600080fd5b506100dd60075481565b61011b610517565b34801561014757600080fd5b506100dd60025481565b34801561015d57600080fd5b506100dd60015481565b34801561017357600080fd5b506100dd60065481565b34801561018957600080fd5b5061019d61019836600461092d565b6106c0565b604080516001600160a01b039095168552602085019390935291830152151560608201526080016100e7565b3480156101d557600080fd5b506101f96101e436600461094f565b60096020526000908152604090205460ff1681565b60405190151581526020016100e7565b34801561021557600080fd5b506100dd60035481565b61011b610713565b34801561023357600080fd5b50600054610247906001600160a01b031681565b6040516001600160a01b0390911681526020016100e7565b3360009081526009602052604090205460ff166102975760405162461bcd60e51b815260040161028e9061097f565b60405180910390fd5b6002546006546102a791906109d8565b4210156103005760405162461bcd60e51b815260206004820152602160248201527f43616e6e6f74207769746864726177206265666f7265206379636c6520656e646044820152607360f81b606482015260840161028e565b60005b600354600090815260086020526040902054811015610501576003546000908152600860205260409020805433919083908110610342576103426109f1565b60009182526020909120600490910201546001600160a01b03161480156103a057506003546000908152600860205260409020805482908110610387576103876109f1565b600091825260209091206003600490920201015460ff16155b156104ef5760006004546005546103b79190610a07565b90508060086000600354815260200190815260200160002083815481106103e0576103e06109f1565b9060005260206000209060040201600201600082825461040091906109d8565b909155505060035460009081526008602052604090208054600191908490811061042c5761042c6109f1565b60009182526020822060049190910201600301805460ff191692151592909217909155600780549161045d83610a29565b919050555080600560008282546104749190610a42565b9091555050604051339082156108fc029083906000818181858888f193505050501580156104a6573d6000803e3d6000fd5b5060035460405133917fdf273cb619d95419a9cd0ec88123a0538c85064229baa6363788f743fff90deb916104e391858252602082015260400190565b60405180910390a25050565b806104f981610a29565b915050610303565b506004546007540361051557610515610908565b565b60015434146105685760405162461bcd60e51b815260206004820152601d60248201527f496e636f727265637420636f6e747269627574696f6e20616d6f756e74000000604482015260640161028e565b3360009081526009602052604090205460ff16156105bb5760405162461bcd60e51b815260206004820152601060248201526f20b63932b0b23c90309036b2b6b132b960811b604482015260640161028e565b6040805160808101825233808252346020808401918252600084860181815260608601828152600380548452600885528884208054600181810183559186528686208a51600492830290910180546001600160a01b03929092166001600160a01b03199092169190911781559751888301559351600288015591519501805495151560ff199687161790559482526009909252948520805490921690921790558054919261066883610a29565b9190505550346005600082825461067f91906109d8565b909155505060035460405190815233907f7f3b9effe05cfb4f31f854004de03199fd03fe56bf38a48b2aa9a9f4402d6e23906020015b60405180910390a250565b600860205281600052604060002081815481106106dc57600080fd5b600091825260209091206004909102018054600182015460028301546003909301546001600160a01b039092169450925060ff1684565b3360009081526009602052604090205460ff166107425760405162461bcd60e51b815260040161028e9061097f565b60025460065461075291906109d8565b42106107a05760405162461bcd60e51b815260206004820152601b60248201527f436f6e747269627574696f6e20706572696f64206973206f7665720000000000604482015260640161028e565b60015434146107f15760405162461bcd60e51b815260206004820152601d60248201527f496e636f727265637420636f6e747269627574696f6e20616d6f756e74000000604482015260640161028e565b60005b600354600090815260086020526040902054811015610905576003546000908152600860205260409020805433919083908110610833576108336109f1565b60009182526020909120600490910201546001600160a01b0316036108f357346008600060035481526020019081526020016000208281548110610879576108796109f1565b9060005260206000209060040201600101600082825461089991906109d8565b9250508190555034600560008282546108b291906109d8565b909155505060035460405133917f5dc1fe5ab986a852c4eda8e8bb94247d13307065c593fb83f1a09be273679382916106b591348252602082015260400190565b806108fd81610a29565b9150506107f4565b50565b6003805490600061091883610a29565b90915550504260065560006005819055600755565b6000806040838503121561094057600080fd5b50508035926020909101359150565b60006020828403121561096157600080fd5b81356001600160a01b038116811461097857600080fd5b9392505050565b60208082526023908201527f4f6e6c79206d656d626572732063616e2063616c6c20746869732066756e637460408201526234b7b760e91b606082015260800190565b634e487b7160e01b600052601160045260246000fd5b808201808211156109eb576109eb6109c2565b92915050565b634e487b7160e01b600052603260045260246000fd5b600082610a2457634e487b7160e01b600052601260045260246000fd5b500490565b600060018201610a3b57610a3b6109c2565b5060010190565b818103818111156109eb576109eb6109c256fea2646970667358221220e70c6d508fc84530ccb06119b00addefc6d3f984525be24aedc17cd5e40fa6e264736f6c63430008130033",
  "immutableReferences": {},
  "source": "// SPDX-License-Identifier: MIT\r\npragma solidity ^0.8.19;\r\n\r\ncontract ROSCA {\r\n    struct Member {\r\n        address payable memberAddress;\r\n        uint256 contribution;\r\n        uint256 balance;\r\n        bool hasWithdrawn;\r\n    }\r\n\r\n    address public admin;\r\n    uint256 public contributionAmount;\r\n    uint256 public cycleDuration;\r\n    uint256 public currentCycle;\r\n    uint256 public memberCount;\r\n    uint256 public totalContribution;\r\n    uint256 public startTime;\r\n    uint256 public membersWithdrawn;\r\n\r\n    mapping(uint256 => Member[]) public cycles;\r\n    mapping(address => bool) public isMember;\r\n\r\n    event MemberJoined(address indexed member, uint256 cycle);\r\n    event ContributionMade(address indexed member, uint256 amount, uint256 cycle);\r\n    event Withdrawal(address indexed member, uint256 amount, uint256 cycle);\r\n\r\n    modifier onlyAdmin() {\r\n        require(msg.sender == admin, \"Only admin can call this function\");\r\n        _;\r\n    }\r\n\r\n    modifier onlyMember() {\r\n        require(isMember[msg.sender], \"Only members can call this function\");\r\n        _;\r\n    }\r\n\r\n    constructor(uint256 _contributionAmount, uint256 _cycleDuration) {\r\n        admin = msg.sender;\r\n        contributionAmount = _contributionAmount;\r\n        cycleDuration = _cycleDuration;\r\n        currentCycle = 1;\r\n        startTime = block.timestamp;\r\n    }\r\n\r\n    function joinROSCA() external payable {\r\n        require(msg.value == contributionAmount, \"Incorrect contribution amount\");\r\n        require(!isMember[msg.sender], \"Already a member\");\r\n\r\n        Member memory newMember = Member({\r\n            memberAddress: payable(msg.sender),\r\n            contribution: msg.value,\r\n            balance: 0,\r\n            hasWithdrawn: false\r\n        });\r\n\r\n        cycles[currentCycle].push(newMember);\r\n        isMember[msg.sender] = true;\r\n        memberCount++;\r\n        totalContribution += msg.value;\r\n\r\n        emit MemberJoined(msg.sender, currentCycle);\r\n    }\r\n\r\n    function contribute() external payable onlyMember {\r\n        require(block.timestamp < startTime + cycleDuration, \"Contribution period is over\");\r\n        require(msg.value == contributionAmount, \"Incorrect contribution amount\");\r\n\r\n        for (uint256 i = 0; i < cycles[currentCycle].length; i++) {\r\n            if (cycles[currentCycle][i].memberAddress == msg.sender) {\r\n                cycles[currentCycle][i].contribution += msg.value;\r\n                totalContribution += msg.value;\r\n                emit ContributionMade(msg.sender, msg.value, currentCycle);\r\n                return;\r\n            }\r\n        }\r\n    }\r\n\r\n    function withdraw() external onlyMember {\r\n        require(block.timestamp >= startTime + cycleDuration, \"Cannot withdraw before cycle ends\");\r\n\r\n        for (uint256 i = 0; i < cycles[currentCycle].length; i++) {\r\n            if (cycles[currentCycle][i].memberAddress == msg.sender && !cycles[currentCycle][i].hasWithdrawn) {\r\n                uint256 amount = totalContribution / memberCount;\r\n                cycles[currentCycle][i].balance += amount;\r\n                cycles[currentCycle][i].hasWithdrawn = true;\r\n                membersWithdrawn++;\r\n                totalContribution -= amount;\r\n\r\n                payable(msg.sender).transfer(amount);\r\n\r\n                emit Withdrawal(msg.sender, amount, currentCycle);\r\n                return;\r\n            }\r\n        }\r\n\r\n        if (membersWithdrawn == memberCount) {\r\n            startNewCycle();\r\n        }\r\n    }\r\n\r\n    function startNewCycle() internal {\r\n        currentCycle++;\r\n        startTime = block.timestamp;\r\n        totalContribution = 0;\r\n        membersWithdrawn = 0;\r\n    }\r\n}\r\n",
  "sourcePath": "C:\\Users\\noble\\rosco-platform\\contracts\\ROSCA.sol",
  "compiler": {
    "name": "solc",
    "version": "0.8.19+commit.7dd6d404.Emscripten.clang"
  },
  "schemaVersion": "3.4.16",
  "updatedAt": "2024-07-26T10:48:21.433Z",
  "networkType": "ethereum",
  "devdoc": {
    "kind": "dev",
    "methods": {},
    "version": 1
  },
  "userdoc": {
    "kind": "user",
    "methods": {},
    "version": 1
  }
}